:020000040800F2
:100000000000022059450008C10C0008C30C00087C
:10001000C50C0008C70C0008C90C0008000000004F
:1000200000000000000000000000000091400008F7
:10003000CB0C000800000000314100089541000889
:10004000A9450008A9450008A9450008A9450008D8
:10005000A9450008A9450008A9450008A9450008C8
:10006000A9450008A9450008A9450008A9450008B8
:10007000A9450008A9450008A9450008A9450008A8
:10008000A9450008A9450008A9450008A945000898
:10009000A9450008A9450008A9450008A945000888
:1000A000A9450008CD0C0008A9450008A94500088D
:1000B000A9450008A9450008A9450008A945000868
:1000C000A9450008A9450008A9450008A945000858
:1000D000A9450008A9450008A9450008A945000848
:1000E000A9450008A9450008A9450008A945000838
:1000F000A9450008A9450008A9450008A945000828
:10010000A9450008A9450008A9450008A945000817
:10011000A9450008A9450008A9450008A945000807
:10012000A9450008A9450008A9450008A9450008F7
:10013000A9450008A9450008A9450008A9450008E7
:10014000A9450008A9450008A9450008A9450008D7
:10015000A9450008A9450008A9450008A9450008C7
:10016000A9450008A9450008A9450008A9450008B7
:10017000A9450008A9450008A9450008000000009D
:08018000A9450008A94500088B
:1001900010B5054C237833B9044B13B10448AFF3C1
:1001A00000800123237010BD280000200000000003
:1001B0001C46000808B5034B1BB103490348AFF3C5
:1001C000008008BD000000002C0000201C46000834
:1001D00053B94AB9002908BF00281CBF4FF0FF31AE
:1001E0004FF0FF3000F072B9ADF1080C6DE904CEAC
:1001F00000F006F8DDF804E0DDE9022304B0704702
:100200002DE9F047089E04468846002B4BD18A42D0
:10021000154667D9B2FA82F24AB1C2F1200701FA53
:1002200002F320FA07F7954047EA030894404FEAA3
:10023000154E230CB8FBFEF71FFA85FC0EFB178842
:1002400043EA084307FB0CF1994209D9EB1807F17F
:10025000FF3080F01B81994240F21881023F2B440D
:100260005B1AA4B2B3FBFEF00EFB103344EA034466
:1002700000FB0CFCA44509D92C1900F1FF3380F0D8
:100280000781A44540F2048102382C4440EA07402B
:10029000A4EB0C0400271EB1D4400023C6E90043A0
:1002A0003946BDE8F0878B4209D9002E00F0EB807B
:1002B0000027C6E9000138463946BDE8F087B3FAA1
:1002C00083F7002F47D18B4202D3824200F2FA809B
:1002D000841A61EB030301209846002EE0D0C6E9A2
:1002E0000048DDE702B9FFDEB2FA82F2002A40F0F0
:1002F0008F80491B4FEA154E1FFA85F80127B1FB85
:10030000FEFC230C0EFB1C1143EA014308FB0CF11D
:10031000994207D9EB180CF1FF3002D2994200F252
:10032000CD808446591AA3B2B1FBFEF00EFB101427
:1003300043EA044408FB00F8A04507D92C1900F152
:10034000FF3302D2A04500F2B6801846A4EB0804A1
:1003500040EA0C409FE7C7F1200CBB4022FA0CFE9C
:100360004EEA030E01FA07F420FA0CF521FA0CF319
:100370004FEA1E482543B3FBF8F92C0C08FB193350
:100380001FFA8EFA44EA034309FB0AF49C4202FA7C
:1003900007F200FA07F10BD91EEB030309F1FF3056
:1003A00080F087809C4240F28480A9F10209734466
:1003B0001B1BADB2B3FBF8F008FB103345EA034456
:1003C00000FB0AFAA24508D91EEB040400F1FF3332
:1003D0006BD2A24569D90238744440EA0940A0FBB7
:1003E0000289A4EB0A044C45C2464B4654D351D073
:1003F000002E69D0B1EB0A0564EB030404FA0CFC8F
:10040000FD40FC404CEA0505C6E90054002747E7DB
:10041000C2F1200320FA03F7954001FA02F021FA15
:1004200003F34FEA154E3843010CB3FBFEF71FFAF6
:1004300085F80EFB173341EA034107FB08F38B42B3
:1004400004FA02F407D9691807F1FF3C2FD28B4256
:100450002DD9023F2944CB1A81B2B3FBFEF00EFB2B
:10046000103341EA034100FB08F38B4207D96918B6
:1004700000F1FF3C17D28B4215D902382944C91A22
:1004800040EA07473BE73746304609E70746E7E6D5
:100490001846FBE64145ABD2B8EB020A69EB0E0207
:1004A00001381346A4E76046E9E7184695E7674632
:1004B000D1E781467CE702382C4447E7ACF1020CD7
:1004C0002B442FE7384608E73746E9E6704700BF78
:1004D00000B583B000238DF804309DF8043001335B
:1004E00002A901F8043D41F2883300220348006864
:1004F00002F03EF9282001F0D5FFEEE7604D002024
:1005000000B585B000238DF80C300D4B93E8030047
:100510000190ADF8081041F28833002203A9094880
:10052000006802F077F90023052BF4D89DF80C1031
:1005300004AA1A4412F80C2C9142ECD00133F3E7D0
:10054000486E0008604D002000B58DB01E4B93E84A
:1005500003000190ADF80810222200210DF10A00DD
:1005600004F053F80DF12E0000F090F9024660B14E
:1005700017E03120C2F10B010DF1300C614401F89C
:100580002C0C5B08ADF82E3001320B2A06DCBDF8CE
:100590002E3013F0010FECD13020EBE700238DF863
:1005A00010300021084600F025FB002000F0E4F99F
:1005B000064A012306CA01A800F004FB00F0ECF98A
:1005C0000DB05DF804FB00BF506E00081000002065
:1005D0002DE9F0419AB001F0A9FE00241794189477
:1005E00019941AA8234B40F8103D02F003F8224B4F
:1005F00018601394149415941AAB204A43F8202DD4
:10060000224601211E4801F06FFF1E4D28604FF069
:100610002008424621460AA803F0F7FF1A4B099327
:1006200080270E9718260F9609AA2146174801F031
:10063000C5FE174B18604246214601A803F0E5FFAE
:10064000144B0093059706966A462146124801F01E
:10065000B5FE124B18603221286801F09DFF22463A
:100660000121642002F024F80D4B18601AB0BDE897
:10067000F08100BF906E00085C4D0020A06E000865
:1006800049050008504D0020B06E0008D104000854
:10069000544D0020B86E000801050008584D002098
:1006A000604D002030B589B0002403940494059473
:1006B000069407940094194B1A6B42F008021A63CF
:1006C0001A6B02F008020092009A01941A6B42F031
:1006D00001021A631A6B02F001020192019A02945C
:1006E0001A6B42F002021A631B6B03F002030293BF
:1006F000029B0B4D22464FF46041284600F08CFCD3
:100700004FF460430393012304930594069403A9D3
:10071000284600F09DFB09B030BD00BF0038024004
:10072000000C024008B50B480B4B03600B4B4360B9
:1007300000238360C3604FF48042026143618361A0
:10074000C361036200F09AFE00B908BD00F0FEF834
:10075000FBE700BF644D002000540040A08601006C
:1007600030B589B000230393049305930693079350
:100770000268154B9A4201D009B030BD00250195A1
:10078000124C236B43F002032363236B03F0020339
:100790000193019B4FF440730393122304930123AD
:1007A0000593032306930423079303A9084800F045
:1007B0004FFB0295236C43F400132364236C03F472
:1007C00000130293029BD7E7005400400038024018
:1007D0000004024070B586B00546002426460DE0B0
:1007E000002B34D19DF817306FEA131303F0070381
:1007F00004EB4402934033439EB20134032C22DCC9
:10080000012202FA04F3DB4303F00F0306A901F807
:10081000023D0A230293019200911346E2210D4802
:1008200000F0FCFE03460028DAD10A2302930123DC
:1008300001930DF1170200920022E221054800F019
:10084000A1FF0346CCE72E80002006B070BD01203A
:10085000FBE700BF644D002030B587B006ADF02344
:1008600005F8013D642000F08BFA0A23029301246D
:100870000194009523460322E221034800F0CEFEB6
:10088000204607B030BD00BF644D002008B5FFF71B
:10089000A1FF08BD10B594B03022002108A803F0D4
:1008A000B4FE0024039404940594069407940194E0
:1008B000154B1A6C42F080521A641B6C03F0805383
:1008C0000193019B0294114B1A6842F480421A6012
:1008D0001B6803F480430293029B022308930123C5
:1008E0000B9310230C930E9408A801F0B3F80F2378
:1008F00003930494059406940794214603A801F0F9
:10090000C9FA14B010BD00BF0038024000700040AA
:1009100008B500F009FAFFF7BDFFFFF7C3FEFFF7C8
:1009200001FF00F061F8FFF797FFFFF751FE01F0BC
:100930001FFDFEE708B50268034B9A4200D008BDD0
:1009400000F00CFAFBE700BF000001407047000018
:1009500000B587B006AA02F8010D0A23029301230D
:100960000193009200227821024800F057FE07B060
:100970005DF804FB644D0020002303E0FF21054ADD
:10098000D1540133B3F5806F03D20028F6D1002192
:10099000F5E770474400002010B584B000241AE049
:1009A000A4F15000C0B2FFF7D3FF0020FFF7D0FF43
:1009B0001020FFF7CDFF6423029380230193084B9F
:1009C00003EBC4130093012340227821054800F073
:1009D00025FE0134E4B2072CE2D904B010BD00BFFB
:1009E00044000020644D002008B5642000F0C8F9E0
:1009F000AE20FFF7ADFF2020FFF7AAFF1020FFF782
:100A0000A7FFB020FFF7A4FFC820FFF7A1FF002039
:100A1000FFF79EFF1020FFF79BFF4020FFF798FF96
:100A20008120FFF795FFFF20FFF792FFA120FFF73E
:100A30008FFFA620FFF78CFFA820FFF789FF3F203C
:100A4000FFF786FFA420FFF783FFD320FFF780FF87
:100A50000020FFF77DFFD520FFF77AFFF020FFF79A
:100A600077FFD920FFF774FF2220FFF771FFDA200C
:100A7000FFF76EFF1220FFF76BFFDB20FFF768FF29
:100A80002020FFF765FF8D20FFF762FF1420FFF79E
:100A90005FFFAF20FFF75CFF0020FFF76DFFFFF760
:100AA0007BFF054B0022A3F80024A3F802240120B9
:100AB00083F8050408BD00BF4400002010F0800F3B
:100AC00016D13F2914D8114B93F8043413B1B2FA5C
:100AD00082F25209012A0CD0CB0800EBC31001F0BE
:100AE000070101238B40094A115C21EA03011154DB
:100AF0007047CB0800EBC31001F0070101238B40C6
:100B0000024A115C19431154704700BF4400002091
:100B10002DE9F04F83B002AC04E90600284AB2F890
:100B200000249DF8006032447F2A43DC244AB2F856
:100B300002249DF801A0D34652443F2A3EDC984649
:100B40008146002523E01E4BB3F80004B3F80214DD
:100B500029442044B8FA88F25209C9B2C0B2FFF75A
:100B6000ADFF0134A64211D907FA04F313F4004F84
:100B7000E9D0134BB3F80004B3F80214294420441D
:100B80004246C9B2C0B2FFF799FFEAE70135AA456C
:100B900008D9A9F1200303FB0B53019A32F8137013
:100BA0000024DFE7064BB3F800241644A3F80064E2
:100BB000484600E0002003B0BDE8F08F0020FAE7CF
:100BC0004400002070B582B0054602A800E9060086
:100BD0001E462C785CB1334602AA12E90600204674
:100BE000FFF796FF2C78A04201D10135F1E72046AE
:100BF00002B070BD024BA3F80004A3F802147047C2
:100C00004400002000B583B0002200920D4B596CC7
:100C100041F480415964596C01F48041009100997C
:100C20000192196C41F0805119641B6C03F08053E0
:100C30000193019B0F216FF0010000F0C7F803B092
:100C40005DF804FB0038024010B588B00022014670
:100C5000192000F0BBF8192000F0ECF800240194F2
:100C6000134B5A6C42F001025A645B6C03F00103AF
:100C70000193019B02A903A801F0DEF901F0CCF970
:100C80000C4BA3FB00239B0C013B0B480B4A02605F
:100C900040F2E732C26043600461846001F022FBED
:100CA00010B1012008B010BD034801F0E4F9F9E7E4
:100CB0000038024083DE1B43B84D00200000014095
:100CC0007047FEE7FEE7FEE7FEE7704708B502481B
:100CD00001F0E6F908BD00BFB84D00200F49D1F87A
:100CE000883043F47003C1F888300D4B1A6842F025
:100CF00001021A60002098601A6822F0847222F4BF
:100D000080321A60074A5A601A6822F480221A60F8
:100D1000D8604FF000638B60704700BF00ED00E0CB
:100D2000003802401030002408B50B4B1A6842F41A
:100D300000721A601A6842F480621A601A6842F4FB
:100D400080721A60032000F02FF80020FFF77CFF6C
:100D5000FFF758FF002008BD003C0240034A11681D
:100D6000034B1B780B441360704700BFF84D002005
:100D70001C000020014B1868704700BFF84D002090
:100D800038B50446FFF7F6FF0546B4F1FF3F02D041
:100D9000044B1B781C44FFF7EDFF401BA042FAD325
:100DA00038BD00BF1C000020074AD36823F4E0636D
:100DB0001B041B0C000200F4E060184340F0BF600D
:100DC00040F40030D060704700ED00E030B4174BC5
:100DD000DB68C3F30223C3F10704042C28BF0424F7
:100DE0001D1D062D18D9033B4FF0FF3505FA04F4FD
:100DF00021EA0401994005FA03F322EA03031943A7
:100E000000280BDB0901C9B200F1604000F5614028
:100E100080F8001330BC70470023E5E700F00F00B6
:100E20000901C9B2024B1954F4E700BF00ED00E01C
:100E300014ED00E0002807DB00F01F024009012349
:100E40009340024A42F82030704700BF00E100E0C2
:100E500000230F2B00F2D780F0B482B039E00722D4
:100E600000E00022B2403A430234674E46F82420A4
:100E7000664A1468EA4302EA04064F6817F4803FA2
:100E800001D045EA0406614C2660646802EA040663
:100E90004F6817F4003F01D045EA04065B4C6660DA
:100EA000A46802EA04064F6817F4801F01D045EADF
:100EB0000406564CA660E46822404E6816F4001FF3
:100EC00001D045EA0402514CE26001330F2B00F2DD
:100ED000978001229A400C6804EA0205AA42F4D1E4
:100EE0004C68022C01D0122C10D1DE08083650F8C4
:100EF00026C003F00704A7000F24BC402CEA040C12
:100F00000C69BC4044EA0C0440F8264004685F00C9
:100F10000326BE40F64306EA040C4C6804F00304C2
:100F2000BC4044EA0C0404604C6804F1FF3CBCF192
:100F3000010F03D9112C01D0122C10D1846806EABC
:100F4000040CCC68BC4044EA0C048460446824EA85
:100F500002024C68C4F300149C4014434460C2680D
:100F600016408A68BA403243C2604A6812F0805F15
:100F7000ABD000220192264A546C44F4804454645D
:100F8000526C02F480420192019A9C08A61C1E4AEF
:100F900052F8267003F0030296000F22B24027EAAF
:100FA00002071C4A90423FF45CAF02F58062904217
:100FB0001AD002F58062904218D002F58062904209
:100FC00016D002F58062904214D002F58062904201
:100FD00012D002F58062904210D002F580629042F9
:100FE0003FF43DAF08223DE701223BE7022239E70B
:100FF000032237E7042235E7052233E7062231E7EB
:1010000002B0F0BC7047704700380140003C01401E
:10101000003802400000024012B9090481617047A3
:101020008161704703685A6912F4806F11D06FF4C0
:1010300080625A6100230363202280F83D2080F8FB
:101040003E30026C42F00402026480F83C30012021
:10105000704700207047F8B506460C4617461D46F7
:1010600022E0FFF787FE069BC01AA84200D8DDB930
:1010700000233363202286F83D2086F83E30326C10
:1010800042F02002326486F83C3001201AE03368D6
:101090005B6924EA03039BB2B3FA83F35B099F42C3
:1010A0000FD1B5F1FF3FDCD1C4F30743012BEED0E4
:1010B00033689B6924EA03039BB2B3FA83F35B09A9
:1010C000EDE70020F8BDF8B504460D4616461F466C
:1010D0003CE01A6842F400721A6023686FF4806280
:1010E0005A6100232363202284F83D2084F83E3097
:1010F000226C42F00402226484F83C30012033E088
:10110000FFF738FEC01BB04200D8FEB900232363AE
:10111000202284F83D2084F83E30226C42F02002E8
:10112000226484F83C3001201EE023685B6925EAD4
:1011300003039BB2003318BF0123A3B123685A698C
:1011400012F4806FC5D1B6F1FF3FD9D1C5F3074383
:10115000012BEAD023689B6925EA03039BB2003385
:1011600018BF0123E9E70020F8BD70B504460D461D
:10117000164623685B6913F0800F1CD12046FFF7E9
:1011800051FFD0B9B5F1FF3FF3D0FFF7F3FD801B5E
:10119000A84201D8002DECD100232363202284F83B
:1011A0003D2084F83E30226C42F02002226484F814
:1011B0003C30012000E0002070BD0120FCE7000071
:1011C0002DE9F04184B00446884616461F460B9D23
:1011D0000268136843F48073136000950A9B002231
:1011E0004FF00111FFF737FF20B10123184604B07B
:1011F000BDE8F081226808F0FE0313612B460A9ACD
:1012000020492046FFF75FFF08B10123EEE70023E6
:10121000039323685A6903929B690393039B2A46AD
:101220000A992046FFF7A1FF034658B1236C042B0F
:1012300001D00123DAE72268136843F400731360D6
:101240000123D3E7012F0ED02368320A1A612A4600
:101250000A992046FFF789FF034678B1236C042BD7
:1012600005D00123C2E72268F6B21661BEE7226804
:10127000136843F4007313600123B7E72268F6B2E2
:101280001661B3E7020001002DE9F04184B0044685
:101290000E46174698460B9D0268136843F4806318
:1012A00013600268136843F48073136000950A9B0F
:1012B00000224FF00111FFF7CEFE20B101231846A6
:1012C00004B0BDE8F081F6B2236806F0FE021A61B0
:1012D0002B460A9A38492046FFF7F5FE08B101234C
:1012E000EDE70023039323685A6903929B690393F4
:1012F000039B2A460A992046FFF737FF58B1236C13
:10130000042B01D00123DAE72268136843F4007349
:1013100013600123D3E7B8F1010F0DD12368FFB2A9
:101320001F612A460A992046FFF71FFF20B3236C4E
:10133000042B1AD00123C2E723683A0A1A612A460D
:101340000A992046FFF711FF58B1236C042B01D0F6
:101350000123B4E72268136843F400731360012388
:10136000ADE72368FFB21F61DBE72268136843F42F
:10137000007313600123A2E72268136843F48073AB
:10138000136000950A9B00224FF001112046FFF7E1
:1013900062FE08B1012392E7236846F001061E6150
:1013A0002B460A9A04492046FFF78DFE0346002883
:1013B00085D0012383E700BF0200010070B5044619
:1013C0000D46164623685B6913F0040F1CD12046B6
:1013D000FFF728FED0B9B5F1FF3FF3D0FFF7CAFC05
:1013E000801BA84201D8002DECD1002323632022CA
:1013F00084F83D2084F83E30226C42F020022264C2
:1014000084F83C30012000E0002070BD0120FCE7A2
:1014100070B505460C4616462B685A6912F0400F07
:1014200029D15A6912F0100F15D1FFF7A3FC801BC8
:10143000A04201D8002CEFD100232B63202285F895
:101440003D2085F83E302A6C42F020022A6485F85F
:101450003C30012070BD6FF010025A6100232B63F5
:10146000202285F83D2085F83E302A6C2A6485F8D4
:101470003C300120EEE70020ECE70000002800F0FF
:10148000BE80F8B5044690F83D30002B6BD0242385
:1014900084F83D302268136823F00103136000F0E4
:1014A000ABFD6268584B9A4262D8584B98428CBF49
:1014B00000230123002B40F0A480554BA3FB002305
:1014C0009B0C21684A6822F03F021A434A60256853
:1014D0002A6A22F03F0266684B498E424ED8013399
:1014E00013432B622568E96921F44F4121F0FF0184
:1014F0006368454A93424BD801385B00B0FBF3F375
:101500000133C3F30B03042B38BF04230B43EB61FC
:1015100021680B6823F0C003E269206A0243134389
:101520000B6021688B6823F4034323F0FF032269D7
:10153000E068024313438B602168CB6823F0FF030C
:101540006269A06902431343CB602268136843F0C9
:101550000103136000202064202384F83D302063C1
:1015600084F83E00F8BD80F83C30FFF7F9F88EE7CC
:10157000284B98428CBF002301239BE74FF49671C0
:1015800001FB03F32449A1FB03139B090133A7E7E4
:10159000A268BAB9461E03EB4307B6FBF7F601365D
:1015A000C6F30B06B6FA86F6760936BBC2B9013821
:1015B00003EB4303B0FBF3F30133C3F30B0242F439
:1015C0000043A3E7461E03EB830707EB8707B6FB41
:1015D000F7F60136C6F30B06B6FA86F67609E4E7A7
:1015E000013803EB830303EB8303B0FBF3F2013217
:1015F000C2F30B0242F4404388E7012386E701204F
:1016000070470120AEE700BFA08601007F841E0066
:1016100083DE1B43FF083D00D34D62102DE9F041EE
:1016200082B004460E4617469846FFF7A3FB94F88F
:101630003D30DBB2202B04D00223184602B0BDE8B7
:10164000F08105460090192301224C492046FFF7FE
:1016500002FD002840F08B8094F83C30012B00F014
:101660008880012384F83C3023681A6812F0010F47
:1016700003D11A6842F001021A602268136823F449
:1016800000631360212384F83D30402384F83E300A
:1016900000232364089B6362BDF824306385638D57
:1016A0002385374BE36201950A9B009343463A46F4
:1016B00031462046FFF784FD00285CD1238D002BA6
:1016C00034D02A460A992046FFF74FFD10BB626AC4
:1016D000236812781A61616A4B1C6362238D013B97
:1016E0009BB22385628D013A92B26285226850696D
:1016F00010F0040FE2D0002BE0D04B781361636A46
:1017000001336362238D013B2385638D013B9BB2D3
:101710006385D3E7236C042B01D001238DE7226876
:10172000136843F400731360012386E72A460A997D
:101730002046FFF743FE034658B1236C042B01D02B
:1017400001237AE72268136843F4007313600123CE
:1017500073E721680A6842F400720A60202284F864
:101760003D20002284F83E2084F83C2065E70223D7
:1017700063E7022361E701235FE700BF0200100077
:101780000000FFFF2DE9F04186B004460E461746E3
:101790009846FFF7EFFA94F83D30DBB2202B04D0E7
:1017A0000226304606B0BDE8F081054600901923B8
:1017B00001229E492046FFF74EFC002840F034816C
:1017C00094F83C30012B00F03781012384F83C3041
:1017D00023681A6812F0010F03D11A6842F001025F
:1017E0001A602268136823F400631360222384F8CC
:1017F0003D30402384F83E30002323640C9B636219
:10180000BDF834306385638D2385894BE362019590
:101810000E9B009343463A4631462046FFF734FD7F
:101820000646002840F00A81238D5BB902932368A5
:101830005A6902929A690292029A1A6842F40072F4
:101840001A6072E0012B0AD0022B1AD000230593F4
:1018500023685A6905929B690593059B65E0226898
:10186000136823F4806313600023039323685A6989
:1018700003929A690392039A1A6842F400721A60FA
:1018800053E02268136823F48063136022681368AE
:1018900043F4006313600023049323685A6904929D
:1018A0009B690493049B40E02A460E992046FFF76B
:1018B000AFFD002840F0C48023681A69636A1A707B
:1018C000636A01336362238D013B2385638D013B92
:1018D0009BB2638529E000950E9B00225549204666
:1018E000FFF7B9FB002840F0AD802268136843F48D
:1018F0000073136023681A69636A1A70626A531C62
:101900006362238D013B2385638D013B9BB263851D
:1019100023681B695370636A01336362238D013B43
:101920002385638D013B9BB26385238D002B72D091
:10193000032B49D8012BB7D0022BCCD000950E9B9E
:1019400000223C492046FFF786FB00287CD1226814
:10195000136823F48063136023681A69636A1A703A
:10196000636A01336362238D013B2385638D013BF1
:101970009BB2638500950E9B00222E492046FFF7FF
:101980006AFB002862D12268136843F40073136075
:1019900023681A69636A1A70626A531C6362238D32
:1019A000013B2385638D013B9BB2638523681B69E3
:1019B0005370636A01336362238D013B2385638D1A
:1019C000013B9BB26385B0E72A460E992046FFF79C
:1019D0001FFD00283CD123681A69636A1A70626A85
:1019E000531C6362238D013B2385638D013B9BB2B6
:1019F00063852368596911F0040F96D01B695370F1
:101A0000636A01336362238D013B2385638D013B50
:101A10009BB2638589E7202384F83D30002384F856
:101A20003E3084F83C30BCE60226BAE602001000E4
:101A30000000FFFF040001000226B2E60126B0E626
:101A40000126AEE60126ACE60126AAE60126A8E6B6
:101A50000126A6E6002800F0BB8170B582B00446DE
:101A6000036813F0010F3BD0A74B9B6803F00C03F6
:101A7000042B2CD0A44B9B6803F00C03082B21D023
:101A80006368B3F5803F4FD0B3F5A02F52D09E4B83
:101A90001A6822F480321A601A6822F480221A60CE
:101AA0006368002B50D0FFF765F90546964B1B681D
:101AB00013F4003F14D1FFF75DF9401B6428F5D9FA
:101AC00003208AE1904B5B6813F4800FD8D08E4BD3
:101AD0001B6813F4003F03D06368002B00F07A8189
:101AE000236813F0020F55D0874B9B6813F00C0F3F
:101AF0003ED0854B9B6803F00C03082B33D0E36882
:101B0000002B68D0814B01221A60FFF733F905469C
:101B10007D4B1B6813F0020F54D1FFF72BF9401BCC
:101B20000228F5D9032058E1774A136843F480333B
:101B30001360B5E7744B1A6842F480221A601A6881
:101B400042F480321A60ABE7FFF714F905466E4B9A
:101B50001B6813F4003FC3D0FFF70CF9401B642847
:101B6000F5D9032039E1684B5B6813F4800FC6D1C7
:101B7000654B1B6813F0020F04D0E368012B01D002
:101B800001202AE1604A136823F0F803216943EA3F
:101B9000C1031360236813F0080F40D0636963B377
:101BA0005B4B01221A60FFF7E5F80546564B5B6F69
:101BB00013F0020F33D1FFF7DDF8401B0228F5D9EF
:101BC00003200AE1504A136823F0F803216943EA2D
:101BD000C1031360DEE74D4B00221A60FFF7CAF81D
:101BE0000546494B1B6813F0020FD3D0FFF7C2F82C
:101BF000401B0228F5D90320EFE0454B00221A6074
:101C0000FFF7B8F80546404B5B6F13F0020F06D0A4
:101C1000FFF7B0F8401B0228F5D90320DDE0236868
:101C200013F0040F79D0384B1B6C13F0805F33D165
:101C300000230193344B1A6C42F080521A641B6CDF
:101C400003F080530193019B0125324B1B6813F471
:101C5000807F23D0A368012B34D0052B38D02A4BAA
:101C60001A6F22F001021A671A6F22F004021A6733
:101C7000A368002B36D0FFF77DF80646224B1B6F7A
:101C800013F0020F48D1FFF775F8801B41F288333B
:101C90009842F3D90320A0E00025D6E71D4A136837
:101CA00043F480731360FFF765F80646194B1B6811
:101CB00013F4807FCED1FFF75DF8801B0228F5D9A1
:101CC00003208AE0104A136F43F001031367CFE744
:101CD0000D4B1A6F42F004021A671A6F42F00102AC
:101CE0001A67C5E7FFF746F80646074B1B6F13F068
:101CF000020F11D0FFF73EF8801B41F28833984263
:101D0000F3D9032069E000BF0038024000004742D9
:101D1000800E474200700040E5B9A369002B5BD0FC
:101D2000304A926802F00C02082A58D0022B17D0D1
:101D30002D4B00221A60FFF71DF80446294B1B6843
:101D400013F0007F42D0FFF715F8001B0228F5D9E9
:101D5000032042E0234A136C23F080531364DCE732
:101D6000214B00221A60FFF705F805461D4B1B6842
:101D700013F0007F06D0FEF7FDFF401B0228F5D9C7
:101D800003202AE0E369226A1343626A43EA82136A
:101D9000A26A5208013A43EA0243E26A43EA026352
:101DA000104A5360104B01221A60FEF7E3FF04460D
:101DB0000C4B1B6813F0007F06D1FEF7DBFF001B06
:101DC0000228F5D9032008E0002006E0002004E006
:101DD00001207047012000E0002002B070BD01200A
:101DE000FBE700BF0038024060004742264B9B687B
:101DF00003F00C03042B44D0082B01D02348704778
:101E00002DE9F04B204B5A6802F03F025B6813F457
:101E1000800F13D01C4B5968C1F3881100231C4854
:101E2000A1FB0001FEF7D4F9174B5B68C3F3014334
:101E300001335B00B0FBF3F0BDE8F08B124B5B6845
:101E4000C3F388131E4600275C010025E41A65EBE6
:101E50000705A90141EA9461A001001B61EB05019E
:101E6000CB0043EA5073C400A01943EB07018B0277
:101E700043EA90538402204619460023FEF7A8F94E
:101E8000D2E70348704700BF003802400024F40046
:101E900040787D01002800F09D8070B504464F4BCE
:101EA0001B6803F00F038B4209D2CBB24B4A13706D
:101EB000136803F00F038B4201D0012070BD23682B
:101EC00013F0020F17D013F0040F04D0444A9368A4
:101ED00043F4E0539360236813F0080F04D0404AA2
:101EE000936843F4604393603D4A936823F0F003A2
:101EF000A068034393600D46236813F0010F32D0AE
:101F00006368012B21D09A1E012A25D9344A126810
:101F100012F0020F60D032498A6822F003021343A4
:101F20008B60FEF727FF06462D4B9B6803F00C03E2
:101F30006268B3EB820F16D0FEF71CFF801B41F2E4
:101F400088339842F0D90320B8E7254A126812F482
:101F5000003FE0D10120B1E7214A126812F0007F72
:101F6000D9D10120AAE71D4B1B6803F00F03AB4238
:101F700009D9EAB2194B1A701B6803F00F03AB4280
:101F800001D001209AE7236813F0040F06D0144A09
:101F9000936823F4E053E1680B439360236813F0E4
:101FA000080F07D00E4A936823F46043216943EA7F
:101FB000C1039360FFF71AFF094B9B68C3F3031338
:101FC000084AD35CD840084B18600020FEF73CFE5E
:101FD000002073E70120704701206FE7003C0240BA
:101FE00000380240786E000818000020014B186885
:101FF000704700BF1800002008B5FFF7F7FF044B3B
:102000009B68C3F38223034AD35CD84008BD00BF5A
:1020100000380240886E000808B5FFF7E7FF044B60
:102020009B68C3F34233034AD35CD84008BD00BF6A
:1020300000380240886E00080F2303600B4B9A683B
:1020400002F0030242609A6802F0F00282609A682D
:1020500002F4E052C2609B68DB0803F4E0530361C2
:10206000034B1B6803F00F030B60704700380240FE
:10207000003C024070470268D36843F00103D3601C
:102080000268936803F00703062B03D0136843F03C
:102090000103136000207047704770477047704716
:1020A00010B5044603681A6912F0020F11D0DA68FD
:1020B00012F0020F0DD06FF002021A6101230377B4
:1020C00003689B6913F0030F70D0FFF7E6FF00234E
:1020D000237723681A6912F0040F12D0DA6812F01D
:1020E000040F0ED06FF004021A61022323772368D5
:1020F0009B6913F4407F5FD02046FFF7CEFF00239B
:10210000237723681A6912F0080F12D0DA6812F0E8
:10211000080F0ED06FF008021A610423237723689A
:10212000DB6913F0030F4ED02046FFF7B6FF002304
:10213000237723681A6912F0100F12D0DA6812F0B0
:10214000100F0ED06FF010021A6108232377236856
:10215000DB6913F4407F3DD02046FFF79EFF00234C
:10216000237723681A6912F0010F03D0DA6812F09E
:10217000010F36D123681A6912F0800F03D0DA6894
:1021800012F0800F34D123681A6912F0400F03D087
:10219000DA6812F0400F32D123681A6912F0200F6A
:1021A00003D0DA6812F0200F30D110BDFFF774FFB2
:1021B0002046FFF773FF8AE72046FFF76DFF2046B2
:1021C000FFF76CFF9BE72046FFF766FF2046FFF70F
:1021D00065FFACE72046FFF75FFF2046FFF75EFF95
:1021E000BDE76FF001021A612046FEF7A3FBC1E7CD
:1021F0006FF080021A61204600F08EF8C3E76FF09E
:1022000040021A612046FFF74AFFC5E76FF020023F
:102210001A61204600F07FF8C7E700000368304AE3
:10222000904212D0B0F1804F0FD0A2F57C42904284
:102230000BD002F58062904207D002F58062904296
:1022400003D002F57842904203D123F070034A682C
:102250001343234A90422AD0B0F1804F27D0A2F5F1
:102260007C42904223D002F5806290421FD002F55A
:10227000806290421BD002F57842904217D002F55E
:102280007052904213D002F5806290420FD002F556
:10229000806290420BD0A2F59832904207D002F5AE
:1022A0008062904203D002F58062904203D123F411
:1022B0004073CA68134323F080034A6913430360E1
:1022C0008B68C3620B688362054B984203D003F5A9
:1022D0008063984201D10B69036301234361704716
:1022E00000000140A8B110B5044690F83D305BB144
:1022F000022384F83D30211D2068FFF78FFF012362
:1023000084F83D30002010BD80F83C30FFF7B2FE6D
:10231000EEE7012070477047704708B501F051FEA5
:1023200010B102684068904708BD0000EFF30583D4
:102330009BB9EFF310839BB90C4B1B68022B05D0A4
:102340008BB90A4B01221A6000207047EFF311820B
:10235000002AF5D06FF0050070476FF00500704758
:102360006FF0050070474FF0FF3070474C040020BD
:1023700008B5EFF30583B3B9EFF31083B3B90E4B90
:102380001B68022B08D0012B13D10B4B02221A60C1
:1023900001F0B6F8002008BDEFF31182002AF2D058
:1023A0006FF00500F7E76FF00500F4E76FF0050048
:1023B000F1E74FF0FF30EEE74C040020F0B587B0B6
:1023C00000240494EFF305844CBBEFF3108333BB7C
:1023D000334B1B68022B25D008B300238DF8173030
:1023E00092B316681EB3946904B91824631E372B80
:1023F00052D8536813F0010F50D15569D5B14FEA47
:10240000950C93682BB1D7685B2F02D9176907B178
:102410000DBB93B14FF0FF35012D23D075B3049858
:1024200007B0F0BDEFF31183002BF8D1D4E70DF125
:102430001706D8E74FF0800CE3E7D3686BB9136950
:1024400073B14FF0FF35E7E7002518244FF0800CFB
:102450000DF11706E0E70125DEE74FF0FF35DBE77A
:102460000025D9E7136992680292019300940B4604
:102470006246314600F0D8FF0490D0E704AA0192EA
:1024800000940B461FFA8CF2314601F006F8012841
:10249000C5D000230493C2E70020C1E70020BFE7B6
:1024A0004C04002008B5EFF30583A3B9EFF31083C4
:1024B000A3B90C4B1B68022B02D040B9002008BD09
:1024C000EFF31183002BF8D06FF00500F7E701F070
:1024D0006BF90020F3E76FF00500F0E76FF00500FF
:1024E000EDE700BF4C040020F0B583B0EFF30585A5
:1024F000002D42D1EFF31085002D40D1244C2468EB
:10250000022C21D000283CD01C4617460E4605461A
:10251000082001F071FF0346002834D005604760B1
:10252000C6B9002224B32068A16811B1E5682F2D37
:1025300017D889B14FF0FF3139BB164900910121FD
:1025400001F07AFB03B0F0BDEFF31184002CD9D079
:102550000020F7E70122E5E7E16861B14FF0FF31C4
:10256000EAE701910B490091012101F081FBE9E7C4
:1025700000210846E0E70021DEE70020E2E7002036
:10258000E0E70020DEE70020DCE70020DAE700BF1C
:102590004C0400201B230008EFF30583E3B9EFF39D
:1025A0001083E3B9124B1B68022B0ED0D0B100B5DB
:1025B00083B00A4600230093042101F07FFB012829
:1025C00013D1002003B05DF804FBEFF31183002B5F
:1025D000ECD06FF0050070476FF0050070476FF0AA
:1025E000050070476FF0030070476FF00200E9E7E5
:1025F0004C04002070B5EFF30583002B50D1EFF3AE
:1026000010831E46002B4DD1284A1268022A24D07E
:1026100000B1436813F0010F00D0012613F0080F3A
:1026200042D1044678B3816811B1C3684F2B1FD8DB
:10263000C9B14FF0FF338BBB4EB3042000F0CEFB8B
:10264000054625B144B32168284600F049FD15B17F
:102650000EB145F00105284670BDEFF31182002A46
:10266000D6D00025F7E7E3687BB14FF0FF33E2E710
:1026700026B1042000F0BDFB0546E2E7012000F092
:10268000B8FB0546DDE70023D5E70023D3E70120AB
:1026900000F0A4FB0546D4E70021D5E70025D6E7E6
:1026A0000025D8E70025D6E70025D4E74C04002014
:1026B00070B582B0EFF30583002B4CD1EFF310839C
:1026C000002B4AD1294B1B68022B23D0002846D06F
:1026D000002946D01446002A34D093684BB1D26802
:1026E0004F2A06D9226922B1666901FB00F5AE4284
:1026F00022D2ABB14FF0FF33ABBB002200F07DFA2A
:10270000054625B12CB32168284600F0E9FC28468F
:1027100002B070BDEFF31183002BD7D00025F6E790
:10272000E3688BB9236913B14FF0FF33E4E76369C2
:102730006BB14FF0FF33DFE70025009500F015FA8D
:102740000546DEE70023D7E74FF0FF33D4E7002349
:10275000D2E70021D8E70025D9E70025D7E70025F3
:10276000D5E70025D3E70025D1E700BF4C040020C2
:1027700010B582B01C46EFF30583B3B9EFF31083B5
:102780009BB9224B1B68022B0BD0A0B3B1B3002323
:10279000224600F059FA012833D0A4B36FF00100AB
:1027A00027E0EFF31183002BEFD0A8B1B9B1CCB97A
:1027B000002302AA42F8043D00F02AFB012814D1AC
:1027C000019BABB1124B4FF080521A60BFF34F8F99
:1027D000BFF36F8F00200CE06FF0030009E06FF093
:1027E000030006E06FF0030003E06FF0020000E07A
:1027F000002002B010BD6FF00300FAE76FF0030095
:10280000F7E70020F5E76FF00200F2E74C04002044
:1028100004ED00E010B582B01C46EFF30583ABB9C0
:10282000EFF3108393B9224B1B68022B0AD098B3A5
:10283000A9B3224600F052FB012833D0A4B36FF0B5
:10284000010027E0EFF31183002BF0D0A8B1B9B15C
:10285000CCB902AA002342F8043D00F0EBFB0128AA
:1028600014D1019BABB1134B4FF080521A60BFF3F0
:102870004F8FBFF36F8F00200CE06FF0030009E073
:102880006FF0030006E06FF0030003E06FF002005A
:1028900000E0002002B010BD6FF00300FAE76FF017
:1028A0000300F7E70020F5E76FF00200F2E700BF52
:1028B0004C04002004ED00E010B4054B1C1D046026
:1028C00060330B60802313605DF8044B704700BFDA
:1028D0004C04002010B4064B03F51874046003F593
:1028E0002F730B604FF4807313605DF8044B7047D7
:1028F0004C04002000F1080343604FF0FF32826077
:10290000C3600361002303607047002303617047C5
:1029100043684B609A688A609A6851609960086160
:10292000036801330360704730B40D68B5F1FF3FB1
:1029300002D000F1080202E0026904E01A4653687E
:102940001C68AC42FAD953684B6099608A60516048
:10295000086103680133036030BC70470369426853
:10296000816891608268416851605A68824206D0ED
:10297000002202611A68013A1A601868704782687A
:102980005A60F5E710B5044601F094FBA26BE36BC7
:102990009A4204D0002401F0AFFB204610BD012470
:1029A000F9E710B5044601F085FBA36B23B10024C1
:1029B00001F0A2FB204610BD0124F9E770B50446E2
:1029C0001646856B026C5AB903681BB100200135AD
:1029D000A56370BD406801F035F800236360F6E739
:1029E0006EB9806801F006FE226CA3681344A360F0
:1029F0006268934219D32368A3600020E7E7C068A8
:102A000001F0F8FD226C5242E3681344E360216850
:102A10008B4202D263681A44E260022E01D0002089
:102A2000D5E725B1013D0020D1E70020CFE7002008
:102A3000CDE7026C72B110B5C3681344C36044683B
:102A4000A34201D30368C3600C46C168204601F06D
:102A5000D1FD10BD704738B5054601F02BFB95F848
:102A6000454064B203E000F0D5FF013C64B2002CA5
:102A700008DD6B6A33B105F1240000F03DFF00284A
:102A8000F3D0F0E7FF2385F8453001F035FB01F086
:102A900011FB95F8444064B203E000F0BBFF013C39
:102AA00064B2002C08DD2B6933B105F1100000F091
:102AB00023FF0028F3D0F0E7FF2385F8443001F02E
:102AC0001BFB38BD38B540B94FF0500383F3118874
:102AD000BFF36F8FBFF34F8FFEE704460D4601F043
:102AE000E9FA2168E26B236C03FB021060600020AE
:102AF000A063A160013A02FB0313E360FF2384F8A3
:102B0000443084F84530A5B923691BB901F0F4FAC3
:102B1000012038BD04F1100000F0EEFE0028F5D0D1
:102B2000084B4FF080521A60BFF34F8FBFF36F8F87
:102B3000ECE704F11000FFF7DDFE04F12400FFF7DD
:102B4000D9FEE3E704ED00E038B51D46049C0B46D2
:102B500049B12260E063236401212046FFF7B2FF00
:102B600084F84C5038BD2460F4E740B94FF050036E
:102B700083F31188BFF36F8FBFF34F8FFEE710B55C
:102B800084B0044653B192B189B94FF0500383F336
:102B90001188BFF36F8FBFF34F8FFEE74FF05003E5
:102BA00083F31188BFF36F8FBFF34F8FFEE74AB9EE
:102BB00041B14FF0500383F31188BFF36F8FBFF320
:102BC0004F8FFEE7502003900398502808D04FF015
:102BD000500383F31188BFF36F8FBFF34F8FFEE76E
:102BE00020461C46012384F8463000949DF8183096
:102BF000FFF7AAFF204604B010BD40B94FF05003C4
:102C000083F31188BFF36F8FBFF34F8FFEE7F0B5EB
:102C100083B0064611B101FB00F000E0002017462A
:102C20000C46503001F0E8FB054650B1002380F817
:102C3000463000903B4600F1500221463046FFF7F7
:102C400083FF284603B0F0BDF0B585B0019260B1B6
:102C5000044699B9026C8AB14FF0500383F311888E
:102C6000BFF36F8FBFF34F8FFEE74FF0500383F337
:102C70001188BFF36F8FBFF34F8FFEE7022B0BD18D
:102C8000E26B012A08D04FF0500383F31188BFF3A1
:102C90006F8FBFF34F8FFEE71E460F4600F0C2FE58
:102CA00050B9019B53B14FF0500383F31188BFF328
:102CB0006F8FBFF34F8FFEE700253AE0002538E025
:102CC000324639462046FFF779FE636A4BB9A8B110
:102CD0003B4B4FF080521A60BFF34F8FBFF36F8FA3
:102CE0000CE004F1240000F007FE38B1344B4FF043
:102CF00080521A60BFF34F8FBFF36F8F01F0FCF962
:102D0000012005B0F0BD01F0F7F90020F9E702A8B5
:102D100000F036FE012519E0002384F8443021E05C
:102D2000002384F8453023E02046FFF794FE00F0AE
:102D3000C3FC01F0BFF9A26BE36B9A42C0D3022E31
:102D4000BED0019B002BDED0002DE0D001F0D4F9E5
:102D500000F01CFC01F0AEF994F844305BB2B3F122
:102D6000FF3FD9D094F845305BB2B3F1FF3FD7D0E5
:102D700001F0C2F901A902A800F00CFEC8B9204672
:102D8000FFF700FE0028CFD0019904F1100000F0F9
:102D90007BFD2046FFF75FFE00F08EFC0028C8D1C7
:102DA000074B4FF080521A60BFF34F8FBFF36F8F06
:102DB000BFE72046FFF74FFE00F07EFC0020A0E7B3
:102DC00004ED00E048B108B5002141600160C16038
:102DD0000B460A46FFF738FF08BD704710B502469C
:102DE00000210120FFF709FF0446FFF7EBFF204613
:102DF00010BD10B582B000900B4600221146012094
:102E0000FFF7B3FE0446FFF7DDFF204602B010BD1A
:102E10002DE9F84360B1044699B9006C88B14FF0D0
:102E2000500383F31188BFF36F8FBFF34F8FFEE71B
:102E30004FF0500383F31188BFF36F8FBFF34F8FB1
:102E4000FEE7022B0BD1E06B012808D04FF05003B6
:102E500083F31188BFF36F8FBFF34F8FFEE71F46D9
:102E60009046894601F04CFAEFF311864FF050037B
:102E700083F31188BFF36F8FBFF34F8FA26BE36BA8
:102E80009A4203D3022F01D000200FE094F845505E
:102E90006DB23A4649462046FFF790FDB5F1FF3F37
:102EA00008D06B1C5BB284F84530012086F3118892
:102EB000BDE8F883636A5BB104F1240000F01CFDF7
:102EC00040B1B8F1000F07D00120C8F80000EDE7CD
:102ED0000120EBE70120E9E70120E7E7F0B585B045
:102EE000019260B1044699B9036C8BB14FF0500365
:102EF00083F31188BFF36F8FBFF34F8FFEE74FF05F
:102F0000500383F31188BFF36F8FBFF34F8FFEE73A
:102F10000F4600F087FD50B9019B53B14FF05003AD
:102F200083F31188BFF36F8FBFF34F8FFEE7002647
:102F30003EE000263CE039462046FFF77AFD013DA1
:102F4000A563236923B901F0D7F8012005B0F0BDCE
:102F500004F1100000F0D0FC0028F4D0344B4FF006
:102F600080521A60BFF34F8FBFF36F8FEBE701F012
:102F7000C3F80020EAE702A800F002FD012621E0E4
:102F8000002384F8443029E0002384F845302BE006
:102F90002046FFF760FD00F08FFB09E02046FFF7B9
:102FA0005AFD00F089FB2046FFF7FBFC00283DD1CD
:102FB00001F080F8A56B002DBDD1019B002BD6D070
:102FC000002ED8D001F098F800F0E0FA01F072F885
:102FD00094F844305BB2B3F1FF3FD1D094F8453060
:102FE0005BB2B3F1FF3FCFD001F086F801A902A890
:102FF00000F0D0FC0028D1D12046FFF7D2FC0028F9
:10300000C6D0019904F1240000F03EFC2046FFF7F1
:1030100022FD00F051FB0028CAD1054B4FF0805231
:103020001A60BFF34F8FBFF36F8FC1E700208DE7AA
:1030300004ED00E02DE9F84360B1044699B9036C52
:103040008BB14FF0500383F31188BFF36F8FBFF341
:103050004F8FFEE74FF0500383F31188BFF36F8F5C
:10306000BFF34F8FFEE71746894601F049F9EFF3AA
:1030700011864FF0500383F31188BFF36F8FBFF3B6
:103080004F8FD4F83880B8F1000F1DD094F8445019
:103090006DB249462046FFF7CCFC08F1FF33A3632D
:1030A000B5F1FF3F05D06B1C5BB284F844300120C2
:1030B0000BE023696BB104F1100000F01DFC50B16E
:1030C0005FB10120386000E0002086F31188BDE880
:1030D000F8830120F9E70120F7E70120F5E7000078
:1030E0000023072B0CD8074A52F833200AB10133CA
:1030F000F7E7044A42F8331002EBC3035860704705
:10310000704700BFFC4D002070B504460D461646C2
:1031100000F0D0FF94F844305BB2B3F1FF3F0DD024
:1031200094F845305BB2B3F1FF3F0BD000F0E4FF01
:10313000A36B5BB12046FFF78EFC70BD002384F8C3
:103140004430EDE7002384F84530EFE73246294666
:1031500004F1240000F0B2FBECE70000074B9B6A8F
:103160001B6833B1054B9A6AD268D2685268DA623A
:103170007047024B4FF0FF32DA627047080B0020B5
:103180002DE9F04781460D4617469A46089EDDF820
:1031900024800A9C9200A521206B01F036FA236B53
:1031A00007F18042013A03EB820727F0070700236B
:1031B0000F2B07D8E95CE21882F83410EA5C0AB1F8
:1031C0000133F5E7002384F84330372E00D9372642
:1031D000E662E66400252565201DFFF796FB04F1F5
:1031E0001800FFF792FB2461C6F13806A6616462FD
:1031F000656584F8585052464946384600F032FF1B
:103200002060B8F1000F01D0C8F80040BDE8F08799
:1032100070B5002407E004EB8402930010481844C2
:10322000FFF768FB0134372CF5D90E4C04F5926694
:103230003046FFF75FFB04F2A4452846FFF75AFB30
:1032400004F11400FFF756FB04F59760FFF752FBFB
:103250002046FFF74FFBA662C4F8CC5470BD00BFF8
:10326000380B0020080B002038B5044600F022FF80
:10327000274BD3F8D0240132C3F8D024D3F8D43468
:1032800073B1234BD3F8D8348BB9214BD3F8D43452
:10329000DA6AE36A9A420AD81D4BC3F8D44406E0BE
:1032A0001B4BC3F8D444D3F8D034012B2CD0184A8C
:1032B000D2F8DC340133C2F8DC346364E36AD2F858
:1032C000E024934202D9124AC2F8E034104D05F1CD
:1032D000300003EB83039A00211D1044FFF718FB15
:1032E00000F00AFFD5F8D8346BB1D5F8D434DA6AD7
:1032F000E36A9A4207D2074B4FF080521A60BFF33D
:103300004F8FBFF36F8F38BDFFF782FFCFE700BF4E
:10331000080B002004ED00E010B5044690F8593089
:1033200033B9006B01F0E2F8204601F0DFF810BD80
:10333000012B0AD0022BFAD04FF0500383F31188EF
:10334000BFF36F8FBFF34F8FFEE701F0CFF8EEE7CB
:1033500038B517E000F0AEFE0D4CD4F8C434DD688B
:10336000281DFFF7FBFAD4F8D034013BC4F8D03461
:10337000D4F8E434013BC4F8E43400F0BDFE284640
:10338000FFF7CAFF024BD3F8E434002BE2D138BD7B
:10339000080B002008B5FFF7DBFF064B1B6B012B6A
:1033A000F9D9054B4FF080521A60BFF34F8FBFF32E
:1033B0006F8FF0E7080B002004ED00E070B50446C5
:1033C0000E46184BD3F8E854D3F8D4040430FFF772
:1033D000C5FAB4F1FF3F12D02C44124BD3F8D434C9
:1033E0005C60A54214D80F4DA86AD5F8D4140431F6
:1033F000FFF79AFAEB6AA34212D9EC6210E0002EB2
:10340000EAD00848D0F8D4140431FFF781FA07E075
:10341000044BD3F8CC04D3F8D4140431FFF784FA66
:1034200070BD00BF080B002070B586B00B9D0C9CD2
:1034300045B94FF0500383F31188BFF36F8FBFF38B
:103440004F8FFEE744B94FF0500383F31188BFF369
:103450006F8FBFF34F8FFEE75C260496049E5C2EB1
:1034600008D04FF0500383F31188BFF36F8FBFF381
:103470004F8FFEE72563022584F8595000250395F8
:10348000029405AD01950A9D0095FFF779FE20464F
:10349000FFF7EAFE059806B070BD2DE9F04385B050
:1034A0000746884615469946900000F0A5FF08B3E8
:1034B00006465C2000F0A0FF0446B8B10663E4B104
:1034C000002384F85930039302940D9B01930C9BC5
:1034D00000934B462A4641463846FFF751FE2046A8
:1034E000FFF7C2FE012005B0BDE8F083304600F0D2
:1034F000FDFFE4E74FF0FF30F5E74FF0FF30F2E774
:1035000010B588B000240594069407AA06A905A85A
:10351000FFF7D2F9059B0293069B01930094234683
:10352000079A17491748FFF77FFF40B100F052FB99
:10353000012806D0B0F1FF3F18D008B010BD002020
:10354000F6E74FF0500383F31188BFF36F8FBFF39B
:103550004F8F0D4B4FF0FF32DA620122C3F8D824AF
:103560000022C3F8E82400F047FEE6E74FF05003DE
:1035700083F31188BFF36F8FBFF34F8FFEE700BF58
:10358000C06E000895330008080B0020034AD2F8EB
:10359000EC340133C2F8EC34704700BF080B002054
:1035A000014BD3F8E8047047080B00202DE9F041E7
:1035B000404BD3F8EC34002B6DD13E4BD3F8E8549C
:1035C0000135C3F8E854CDB99B6A1B6843B14FF08D
:1035D000500383F31188BFF36F8FBFF34F8FFEE764
:1035E000344B9A6AD3F8CC149962C3F8CC24D3F83C
:1035F000F0240132C3F8F024FFF7B0FD2D4BDB6A55
:10360000AB423ED900242B4AD2F8D434DB6A03EB18
:10361000830399000A44136B012B43D9012441E031
:103620000124244B9B6A1B686BB3224B9B6ADB68AB
:10363000DE6873689D422BD306F104084046FFF70D
:103640008DF9B36A1BB106F11800FFF787F9F36A29
:10365000184AD2F8E024934202D9164AC2F8E0345C
:10366000144F07F1300003EB83039A0041461044E6
:10367000FFF74EF9F26AD7F8D434DB6A9A42CFD218
:10368000CFE70024CDE70B4B4FF0FF32DA62BAE709
:10369000084AD362B7E7074AD2F8F4340133C2F8D4
:1036A000F4340024034BD3F8F83403B1012420464A
:1036B000BDE8F081080B0020394BD3F8EC3443B956
:1036C0004FF0500383F31188BFF36F8FBFF34F8F19
:1036D000FEE770B500F0EEFC314BD3F8EC24013A74
:1036E000C3F8EC24D3F8EC34002B54D12C4BD3F892
:1036F000D03423B9002400F0FFFC204670BD002424
:10370000274B5B692BB3264D2B6ADC6804F118004C
:10371000FFF724F9261D3046FFF720F9E36AD5F8B4
:10372000E024934201D9C5F8E0341D4D05F1300085
:1037300003EB83039A0031461044FFF7E9F8E26A8D
:10374000D5F8D434DB6A9A42DAD30122C5F8F824DA
:10375000D6E70CB1FFF702FD114BD3F8F44464B186
:10376000FFF724FF18B10E4B0122C3F8F824013CE7
:10377000F6D10B4B0022C3F8F424094BD3F8F834EC
:103780005BB1084B4FF080521A60BFF34F8FBFF30D
:103790006F8F0124AFE70024ADE70024ABE700BF43
:1037A000080B002004ED00E010B5B0B104460F4B4B
:1037B000D3F8EC3443B14FF0500383F31188BFF3D7
:1037C0006F8FBFF34F8FFEE7FFF7E0FE002120462B
:1037D000FFF7F4FDFFF770FF38B9054B4FF080524B
:1037E0001A60BFF34F8FBFF36F8F10BD080B00201F
:1037F00004ED00E0234BD3F8EC3423B1214B01223C
:10380000C3F8F82470471F4B0022C3F8F824D3F8FC
:10381000E03403EB830291001A4A0A44126B5AB94E
:103820000BB1013BF5E74FF0500383F31188BFF371
:103830006F8FBFF34F8FFEE710B4124A9900CC1878
:10384000A0001044446B646844633032194488001B
:103850000830024494420DD00A4903EB83008200F1
:103860000A44526BD268C1F8D424C1F8E0345DF840
:10387000044B704761680348142202FB0302516342
:10388000EAE700BF080B002040B94FF0500383F374
:103890001188BFF36F8FBFF34F8FFEE710B50C4653
:1038A000054BD3F8D4141831FFF73EF80121204618
:1038B000FFF784FD10BD00BF080B002038B540B9EC
:1038C0004FF0500383F31188BFF36F8FBFF34F8F17
:1038D000FEE70C461546074AD2F8D4141831FFF714
:1038E00017F80DB14FF0FF3429462046FFF766FD6B
:1038F00038BD00BF080B002038B5C368DC6844B988
:103900004FF0500383F31188BFF36F8FBFF34F8FD6
:10391000FEE704F118052846FFF720F8154BD3F809
:10392000EC3403BB251D2846FFF718F8E36A114A5B
:10393000D2F8E024934202D90E4AC2F8E03403EBF5
:1039400083039A0029460C481044FEF7E1FFE26A1F
:10395000084BD3F8D434DB6A9A4209D90120054BCD
:10396000C3F8F80438BD29460448FEF7D1FFEEE756
:103970000020F7E7080B0020380B00201C0B00206C
:10398000034BD3F8F0240260D3F8E8344360704767
:10399000080B0020F8B550B1054689B94FF0500327
:1039A00083F31188BFF36F8FBFF34F8FFEE74FF0A4
:1039B000500383F31188BFF36F8FBFF34F8FFEE780
:1039C0000C4600F077FB124BD3F8E81468680A1A2B
:1039D0002368B3F1FF3F17D02F680D4ED6F8F0647F
:1039E000B74201D0884211D9934203D80023236003
:1039F000012405E09B1A23602846FFF7C1FF00243D
:103A000000F07AFB2046F8BD0024F9E70124F7E72F
:103A1000080B0020024B0122C3F8F824704700BFB6
:103A2000080B0020064BD3F8D8343BB1044BD3F835
:103A3000EC340BB100207047022070470120704722
:103A4000080B002000283BD038B504461F4AD2F8A6
:103A5000D424824208D04FF0500383F31188BFF37F
:103A60006F8FBFF34F8FFEE7026D42B94FF05003E7
:103A700083F31188BFF36F8FBFF34F8FFEE7013AD7
:103A80000265C06AE16C88421CD0EAB9251D28464F
:103A9000FEF764FFE36CE362C3F13802A2610B4AF4
:103AA000D2F8E024934202D9084AC2F8E034294609
:103AB000074A142000FB0320FEF72AFF012038BD2F
:103AC000002070470020FAE70020F8E7080B0020EC
:103AD000380B0020064B1A681368B3FA83F35B09AE
:103AE000036013B9D368186870470020704700BF9F
:103AF0000410002008B54160006191420CD8D21A30
:103B000083699A4201D3012010E0011D094B5868D6
:103B1000FEF70AFF002009E09A4201D2994206D23C
:103B2000011D044B1868FEF7FFFE002008BD0120B0
:103B3000FCE700BF0410002070B582B000F0BAFAB4
:103B4000124B9B681BB100F0D7FA02B070BD0F4C4E
:103B500004F10C063046FEF7CDFE04F120052846A0
:103B6000FEF7C8FE266065600023009304F134036D
:103B700004F1840210210A20FEF7F7FFA06000285C
:103B8000E1D00349FFF7ACFADDE700BF04100020E5
:103B9000C86E00082DE9F041079C41B94FF0500371
:103BA00083F31188BFF36F8FBFF34F8FFEE70F468C
:103BB00074B11D4616468046FFF7BEFFC4F800806C
:103BC000A761E6612562069B6362201DFEF79DFEEC
:103BD000BDE8F08110B588B0FFF7AEFF134B9B68CE
:103BE000D3B100240594069407AA06A905A8FEF7F8
:103BF00071FE059B0293069B0193022300932346CB
:103C0000079A0B490B48FFF70FFC084BC3F8240138
:103C100010B1012008B010BD4FF0500383F311889C
:103C2000BFF36F8FBFF34F8FFEE700BF041000207C
:103C3000D06E0008AD3F00082DE9F04182B0054686
:103C40000E4617469846302000F0D6FB044658B181
:103C50000190089B009343463A4631462846FFF7B9
:103C600099FF002384F82C30204602B0BDE8F08193
:103C700030B585B0099C30250395039D302D08D0C3
:103C80004FF0500383F31188BFF36F8FBFF34F8F53
:103C9000FEE744B94FF0500383F31188BFF36F8FF1
:103CA000BFF34F8FFEE70194089D0095FFF772FF69
:103CB000012384F82C30204605B030BDC8B130B5A2
:103CC00085B015460446174A906840B31A460091DD
:103CD0000195029405291DDCFFF7A4FE022811D0EE
:103CE00000231A4669460F488068FEF7ADFF05B00D
:103CF00030BD4FF0500383F31188BFF36F8FBFF3D4
:103D00004F8FFEE70023089A694606488068FEF751
:103D10009BFFECE700236946FFF77AF8E7E700200E
:103D2000E5E700BF04100020204B1B681A68002A3A
:103D300037D070B582B0DB681E68DC68251D284668
:103D4000FEF70CFE636A20469847E369012B0AD010
:103D5000164B1B681A68002AEDD1144A516811608D
:103D6000536002B070BDA36933449E4207D26360C2
:103D7000246129460D4B1868FEF7D6FDE8E70021BF
:103D800000910B4632462046FFF798FF0028DFD10E
:103D90004FF0500383F31188BFF36F8FBFF34F8F42
:103DA000FEE7024A5168116053607047041000201A
:103DB00038B50546FFF7F4FB0446084BD3F8283125
:103DC000834206D800232B60044BC3F828412046C9
:103DD00038BDFFF7A9FF01232B60F5E70410002091
:103DE00070B582B005460E46144B1B68DB68DC6874
:103DF000201DFEF7B3FDE369012B04D0636A204662
:103E0000984702B070BDA1692B463246294420462E
:103E1000FFF770FE0028F1D0002100910B462A46E2
:103E20002046FFF74BFF0028E8D14FF0500383F303
:103E30001188BFF36F8FBFF34F8FFEE70410002090
:103E400070B582B006460C46FFF7A0FB01A8FFF74D
:103E5000AFFF019B1BBB05460CB9B04218D22CB179
:103E6000114B5B681C68B4FA84F464092246711B28
:103E70000D4B9868FFF748F9FFF71EFC88B90B4B0C
:103E80004FF080521A60BFF34F8FBFF36F8F08E07F
:103E9000FFF712FC29463046FFF7A2FF01E0FFF7CB
:103EA0000BFC02B070BD00BF0410002004ED00E068
:103EB00030B589B002E0049B002B0FDA002204A980
:103EC000394B9868FFF70AF800286AD0049B002B4A
:103ED000F1DA07990698059B9847ECE7069C636919
:103EE00013B1201DFEF73AFD03A8FFF761FF049B05
:103EF000092BE3D801A252F823F000BF253F0008A8
:103F0000253F0008253F0008BD3E00086D3F000822
:103F1000933F0008253F0008253F0008BD3E0008EC
:103F20006D3F00080599A5690B46024629442046C5
:103F3000FFF7E0FD0028C1D0636A20469847E36997
:103F4000012BBBD1A269002100910B4605980244C8
:103F50002046FFF7B3FE0028B0D14FF0500383F3A3
:103F60001188BFF36F8FBFF34F8FFEE70599A161F3
:103F700031B10346024601442046FFF7BBFD9DE7F1
:103F80004FF0500383F31188BFF36F8FBFF34F8F50
:103F9000FEE794F82C30002B90D1204600F0A6FAD2
:103FA0008CE709B030BD00BF0410002000B583B01D
:103FB00001A8FFF78FFD0199FFF742FFFFF778FF98
:103FC000F6E740B94FF0500383F31188BFF36F8FCA
:103FD000BFF34F8FFEE710B5044600F06BF8246A7C
:103FE00000F08AF8204610BD82B0002301930D4BEB
:103FF0001B68B3F1FF3F08D04FF0500383F31188E3
:10400000BFF36F8FBFF34F8FFEE74FF0500383F383
:104010001188BFF36F8FBFF34F8F019B002BFCD034
:1040200002B070472400002008480068006880F350
:1040300008884FF0000080F3148862B661B6BFF3C1
:104040004F8FBFF36F8F00DF00BF000008ED00E06F
:10405000DFF80C00016841F4700101607047000056
:1040600088ED00E04FF0807340F8043C21F001013E
:1040700040F8081C054B40F80C3C40F8202C6FF031
:10408000020340F8243C4438704700BFE93F000871
:10409000074B19680868B0E8F04F80F30988BFF350
:1040A0006F8F4FF0000080F311887047AFF30080EE
:1040B000DC0F00204FF0500383F31188BFF36F8FA4
:1040C000BFF34F8F0A4A136801331360012B00D0EE
:1040D0007047084B1B6813F0FF0FF9D04FF05003E7
:1040E00083F31188BFF36F8FBFF34F8FFEE700BFDD
:1040F0002400002004ED00E0094B1B6843B94FF099
:10410000500383F31188BFF36F8FBFF34F8FFEE728
:10411000013B034A13600BB983F31188704700BF5A
:10412000240000200000000000000000000000004B
:10413000EFF30980BFF36F8F154B1A681EF0100F55
:1041400008BF20ED108A20E9F04F10602DE909002A
:104150004FF0500080F31188BFF34F8FBFF36F8F84
:10416000FFF748FB4FF0000080F3118809BC196885
:104170000868B0E8F04F1EF0100F08BFB0EC108ACE
:1041800080F30988BFF36F8F704700BFAFF30080E3
:10419000DC0F002008B54FF0500383F31188BFF304
:1041A0006F8FBFF34F8FFFF701FA18B1034B4FF03A
:1041B00080521A60002383F3118808BD04ED00E0EB
:1041C000084A0023136008490B60084B1B68084924
:1041D000A1FB03139B09013B06490B6007231360F6
:1041E000704700BF10E000E018E000E01800002079
:1041F000D34D621014E000E0394B1A68394B9A42F3
:104200000DD0374B1A68384B9A4211D14FF05003FA
:1042100083F31188BFF36F8FBFF34F8FFEE74FF02B
:10422000500383F31188BFF36F8FBFF34F8FFEE707
:1042300010B582B02D4B1A78D2B20192FF221A70BB
:104240001B78DBB28DF803309DF8033003F0500388
:10425000274A13700723536009E0254A5368013B3E
:1042600053609DF803305B00DBB28DF803309DF89E
:10427000033013F0800FF0D11D4B5B68032B08D087
:104280004FF0500383F31188BFF36F8FBFF34F8F4D
:10429000FEE71B0203F4E063154A5360019BDBB2A7
:1042A000124A1370134B1A6842F470021A601A68AB
:1042B00042F070421A60FFF783FF00240E4B1C602F
:1042C000FFF7C6FE0D4A136843F040431360FFF743
:1042D000ABFEFFF78FFAFFF787FE204602B010BD56
:1042E00000ED00E071C20F4170C20F4100E400E038
:1042F0003011002020ED00E02400002034EF00E029
:10430000EFF305830F2B0FD9104A9B5CDBB2104AE9
:1043100012789A4208D94FF0500383F31188BFF303
:104320006F8FBFF34F8FFEE70A4B1B6803F4E06308
:10433000074A5268934208D94FF0500383F311881B
:10434000BFF36F8FBFF34F8FFEE77047F0E300E0DE
:10435000301100200CED00E0104A12F0070F1AD0C7
:10436000D11D21F00701C1F5705313440A460C49D1
:104370000A60002048601344083B23F007038B6069
:1043800058601860981A50601360C86008614FF058
:1043900000434B6170474FF47053E8E75011002021
:1043A0003811002010B4134B1A6882421BD359688D
:1043B0005C18844203D14068014459601846416842
:1043C0004418A24213D10B4CA468A2420DD05268EB
:1043D000114441601A6812680260984200D0186067
:1043E0005DF8044B70471346DEE70460F5E70260B2
:1043F000F3E700BF3811002070B50446FFF7C6F898
:10440000394B9B68BBB1384B5B691C4262D1ACB184
:10441000083414F0070F11D024F00704083404F016
:1044200007035BB14FF0500383F31188BFF36F8F25
:10443000BFF34F8FFEE7FFF78FFFE4E7002C4BD071
:10444000294B1B69A34249D3274B1D6801E02B462A
:1044500015466A68A24202D22A68002AF7D1224A87
:104460009268AA423CD01E6808362A681A606B68B7
:104470001B1B102B10D9281910F0070F08D04FF074
:10448000500383F31188BFF36F8FBFF34F8FFEE7A5
:1044900043606C60FFF786FF6968134A13695B1A13
:1044A0001361D268934201D20F4AD3600E4B5B690D
:1044B0000B436B6000232B60FFF7FEF816F0070F2D
:1044C00010D04FF0500383F31188BFF36F8FBFF309
:1044D0004F8FFEE70026EFE70026EDE70026EBE72B
:1044E0000026E9E7304670BD3811002080B338B5AA
:1044F0000446A0F1080550F8042C164949690A42FF
:1045000008D14FF0500383F31188BFF36F8FBFF3CF
:104510004F8FFEE750F8080C40B14FF0500383F383
:104520001188BFF36F8FBFF34F8FFEE722EA0102BE
:1045300044F8042CFFF72AF854F8041C054A1369C0
:104540000B4413612846FFF72DFFFFF7B5F838BD80
:10455000704700BF38110020DFF834D0002103E09D
:104560000C4B5B58435004310B480C4B42189A4299
:10457000F6D30B4A02E0002342F8043B094B9A426F
:10458000F9D3FCF7ABFB00F011F8FCF7C1F9704769
:1045900000000220E86E0008000000202800002033
:1045A000280000203C4E0020FEE7000070B50D4EB4
:1045B0000D4CA41BA4100025A54209D10B4E0C4C98
:1045C00000F02CF8A41BA4100025A54205D170BD55
:1045D00056F8253098470135EEE756F825309847CC
:1045E0000135F2E7E06E0008E06E0008E06E0008BA
:1045F000E46E000810B5431E0A44914200D110BD7C
:1046000011F8014B03F8014FF7E7024403469342C8
:1046100000D1704703F8011BF9E70000F8B500BFAF
:10462000F8BC08BC9E467047F8B500BFF8BC08BC93
:044630009E467047EB
:104634000000000000000000000000000000000076
:104644000000000000000000000000000000000066
:104654000000000000000000000000000000000056
:1046640000000000E003E003E003E003E003E003F4
:10467400E003E003C003C003C001C001C001C001E6
:10468400C001000000000000E003E003E0030000BC
:1046940000000000000000003C1E3C1E3C1E3C1EAE
:1046A4003C1E3C1E3C1E00000000000000000000F8
:1046B40000000000000000000000000000000000F6
:1046C400000000000000000000000000CE01CE0346
:1046D400DE039E039C039C07FF3FFF7F3807380FD0
:1046E400780F780F780EFFFFFFFFF01EF01CE01C20
:1046F400E03CE03DE0390000000000000000000064
:10470400FC03FE0FEE1FE01EE01EE01EE01EE01F95
:10471400E00FE007F003FC01FE01FE01FE01FE01D3
:10472400FE01FE01FE3DFC3FF00FE001E001000050
:1047340000000000033E07F78FE78EE79EE3BCE32B
:10474400B8E7F8E7F0F7E03FC001FF03FF07F3071E
:10475400F30FF31EF33CF338F3787FF03FE00000EF
:104764000000000000000000E007F80F780F781F39
:10477400781F781F780FF00FE00F801FC37FC3FBF3
:10478400E7F3F7F1F7F0FFF07FF03EF87F7CFF3FAF
:10479400EF1F00000000000000000000E003E00341
:1047A400E003E003E003C003C001000000000000D8
:1047B40000000000000000000000000000000000F5
:1047C40000000000000000000000000000000000E5
:1047D4003F007C00F001E001C003C00780078007B0
:1047E400800F000F000F000F000F000F000F800F4D
:1047F40080078007C007C003E001F0017C003F0090
:104804000F000000007E001FC007C003E001F0019C
:10481400F000F000F8007800780078007800780064
:104824007800F800F000F000F001E001C003C007D8
:10483400001F007E00780000E003C003C001CE39F1
:10484400FF3F7F3F20037003F807780F3C1F3806B3
:104854000000000000000000000000000000000054
:104864000000000000000000000000000000000044
:104874000000000000000000C001C001C001C00130
:10488400C001C001C001FFFFFFFFC001C001C001A2
:10489400C001C001C00100000000000000000000D1
:1048A4000000000000000000000000000000000004
:1048B40000000000000000000000000000000000F4
:1048C4000000E003E003E003E003E001E001E001B5
:1048D400C001800300000000000000000000000090
:1048E40000000000000000000000FE3FFE3F00004A
:1048F40000000000000000000000000000000000B4
:1049040000000000000000000000000000000000A3
:104914000000000000000000000000000000000093
:1049240000000000000000000000E003E003E003DA
:10493400E003000000000000000000000F000F0072
:104944001E001E003C003C0078007800F000F000DF
:10495400E001E001C003C00380078007000F000FDF
:10496400001E001E003C003C0078007800F00000AF
:10497400F007F80F7C1F3E3E1E3C1F7C1F7C0F7807
:104984000F780F780F780F780F780F781F7C1F7CC3
:104994001E3C3E3E7C1FF80FF007000000000000A4
:1049A40000000000F000F007F03FF03FF001F001DC
:1049B400F001F001F001F001F001F001F001F0016B
:1049C400F001F001F001F001F001FF3FFF3F0000B2
:1049D4000000000000000000E00FF83F7C3C3C00B9
:1049E4003E003E003E003C003C007C00F800F0012C
:1049F400E003C0078007000F001E003E003CFE3F9E
:104A0400FE3F00000000000000000000F00FF81F4F
:104A14007C1C3E003E003E003C003C00F800F00FD1
:104A2400F80F7C003E001E001E001E001E003E000B
:104A34007C1CF81FE01F00000000000000000000C4
:104A44007800F800F800F801F803F807F807780F81
:104A5400781E781E783C78787878FFFFFFFF78001E
:104A640078007800780078007800000000000000EA
:104A740000000000FC1FFC1FFC1F001E001E001E87
:104A8400001E001EE01FF81FFC007C003E003E00DC
:104A94001E003E003E003C007C1CF81FE01F00008E
:104AA4000000000000000000FC01FE078E0F001F44
:104AB400001E003E003C003CF83DFC3F3E7F1F7E54
:104AC4000F3C0F3C0F3C0F3C0F3E1F1E3E1FFC0FC4
:104AD400F00300000000000000000000FF3FFF3F63
:104AE400FF3F0F001E001E003C0038007800F0005D
:104AF400F000E001E001C003C0038007800F800FD5
:104B0400000F001F001F0000000000000000000054
:104B1400F807FC0F3E1F1E1E1E3E1E3E1E1E3C1F9F
:104B2400F80FF007F80FFC1E3E3E1F3C1F7C0F7C65
:104B34000F7C1F3C3E3FFC1FF007000000000000FC
:104B440000000000F007F80F7C1E3E3C1E3C1F7C5A
:104B54001F7C1F7C1F7C1F3C3F3EFF1FEF071F0075
:104B64001E001E003E003C00F838F03FE01F00002D
:104B74000000000000000000000000000000000031
:104B840000000000E003E003E003E0030000000095
:104B940000000000000000000000E003E003E00368
:104BA400E00300000000000000000000000000001E
:104BB4000000000000000000E003E003E003E00365
:104BC4000000000000000000000000000000E003FE
:104BD400E003E003E003E001E001E001C00380033F
:104BE40000000000000000000000000003000F00AF
:104BF4003F00FC00F003C00F003F00FE003FC00F69
:104C0400F003FC003F000F00030000000000000060
:104C14000000000000000000000000000000000090
:104C24000000000000000000FFFFFFFF0000000084
:104C34000000FFFFFFFF0000000000000000000074
:104C44000000000000000000000000000000000060
:104C54000000000000E000F8007E801FE007F8017B
:104C64007E001F007E00F801E007801F007E00F830
:104C740000E000000000000000000000F01FFC3F06
:104C84003E381F381F381E001E003C007800F0001C
:104C9400E001C003C003C007C0070000000000001B
:104CA400C007C007C00700000000000000000000AB
:104CB400F803FE0F1E1F0F3E7F3CFF78EF79C7738A
:104CC400C7F38FF38FF38FF39FF39FF3FF73FF7B90
:104CD400F779003C1C1FFC0FF803000000000000E3
:104CE40000000000000000000000E003E003F00703
:104CF400F007F007780F780F7C0E3C1E3C1E3E3CFC
:104D0400FE3FFF3F1F780F780FF007F007F0000019
:104D14000000000000000000000000000000F83F58
:104D2400FC3F3E3C1E3C1E3C1E3C3E3C7C3CF03F5B
:104D3400F83F7E3C1F3C1F3C0F3C0F3C1F3CFE3F9A
:104D4400F83F000000000000000000000000000028
:104D54000000FF01FF07871F003E003C007C007835
:104D64000078007800780078007C007C003E003FEA
:104D7400831FFF07FF010000000000000000000087
:104D8400000000000000F07FFC7F7E781F781F7811
:104D94000F780F780F780F780F780F780F780F78D7
:104DA4001F781E787E78F87FE07F00000000000006
:104DB40000000000000000000000FF3FFF3F003E35
:104DC400003E003E003E003E003EFE3FFE3F003EF1
:104DD400003E003E003E003E003EFF3FFF3F00001D
:104DE4000000000000000000000000000000FF1FA1
:104DF400FF1F001E001E001E001E001E001EFF1FBF
:104E0400FF1F001E001E001E001E001E001E001EAE
:104E1400001E000000000000000000000000000070
:104E24000000FE03FF0F871F003E007C007C00781B
:104E340000F800F87FF87FF80F780F7C0F7C0F3EA6
:104E44008F1FFF0FFE0300000000000000000000A1
:104E54000000000000001F7C1F7C1F7C1F7C1F7C47
:104E64001F7C1F7C1F7CFF7FFF7F1F7C1F7C1F7CA0
:104E74001F7C1F7C1F7C1F7C1F7C00000000000027
:104E840000000000000000000000FF3FFF3FE003BF
:104E9400E003E003E003E003E003E003E003E003F6
:104EA400E003E003E003E003E003FF3FFF3F000013
:104EB4000000000000000000000000000000FC1FD3
:104EC400FC1F7C007C007C007C007C007C007C005F
:104ED4007C007C007C007C0078007800F838F03F8F
:104EE400C03F0000000000000000000000000000BF
:104EF40000001F3C1E3C3C3C783CF03CE03DE03F65
:104F0400C03F803FC03FE03FF03DF03C783C7C3CFC
:104F14003E3C1F3C0F3C000000000000000000006D
:104F2400000000000000003E003E003E003E003E47
:104F3400003E003E003E003E003E003E003E003E7D
:104F4400003E003E003EFF3FFF3F00000000000027
:104F5400000000000000000000001FF81FFC1FFC00
:104F64003FFE3FFE3FFE7FFF77FF77FFF7F7E7F750
:104F7400E7F3E7F3C7F307F007F007F007F00000E3
:104F840000000000000000000000000000000F7C92
:104F94000F7C0F7E0F7F0F7F8F7F8F7FCF7FEF7B05
:104FA400EF79FF79FF78FF787F783F783F781F7833
:104FB4001F78000000000000000000000000000056
:104FC4000000F007FC1F3E3E1F7C0F780F780FF89F
:104FD4000FF80FF80FF80FF80FF80F780F781F7C01
:104FE4003E3EFC1FF007000000000000000000002F
:104FF400000000000000FC3FFF3F1F3E0F3E0F3E3D
:105004000F3E0F3E1F3E3F3EFC3FF03F003E003E42
:10501400003E003E003E003E003E00000000000056
:1050240000000000000000000000F007FC1F3E3EEE
:105034001F7C0F780F780FF80FF80FF80FF80FF8A0
:105044000FF80F780F781F7C3E3EFC1FF8077C009A
:105054003F000F0003000000000000000000F03FCC
:10506400FC3F7E3C3E3C1E3C1E3C3E3C3C3CFC3CEF
:10507400F03FE03FF03DF83C7C3C3E3C1E3C1F3C96
:105084000F3C0000000000000000000000000000D1
:105094000000FC07FE1F0E3E003C003C003C003EAE
:1050A400C01FF80FFE037F001F000F000F001F201A
:1050B4003E3CFC3FF01F0000000000000000000028
:1050C400000000000000FFFFFFFFE003E003E00337
:1050D400E003E003E003E003E003E003E003E003B4
:1050E400E003E003E003E003E0030000000000004D
:1050F400000000000000000000000F7C0F7C0F7C0B
:105104000F7C0F7C0F7C0F7C0F7C0F7C0F7C0F7C43
:105114000F7C0F7C1E3C1E3C3E3EFC1FF007000033
:10512400000000000000000000000000000007F084
:1051340007F007F80F780F7C1E3C1E3C1E3E3C1EF9
:105144003C1F781F780FF80FF007F007F007E00313
:10515400E003000000000000000000000000000068
:10516400000003E003F003F007F0E7F3E7F3E7F3ED
:10517400E773F77BF77FFF7F7F7F7F7F7E7F7E3FB5
:105184003E3E3E3E3E3E00000000000000000000A7
:1051940000000000000007F80F7C1E3E3E3E3C1F4E
:1051A400F80FF007E007E003E003F007F80F7C0FC7
:1051B4007C1E3E3C1F780F780FF0000000000000BA
:1051C4000000000000000000000007F807780F7CD2
:1051D4001E3C1E3E3C1F780FF80FF007E003E0036F
:1051E400E003E003E003E003E003E003E003000086
:1051F4000000000000000000000000000000FF7F2D
:10520400FF7F0F001F003E007C00F800F000E0016B
:10521400E003C007800F000F001E003E007CFF7FEC
:10522400FF7F00000000000000000000FF0780076F
:105234008007800780078007800780078007800732
:105244008007800780078007800780078007800722
:1052540080078007800780078007FF07FF0700009B
:1052640000780078003C003C001E001E000F000F78
:1052740080078007C003C003E001E001F000F000F4
:10528400780078003C003C001E001E000F000F0058
:1052940007000000F07FF000F000F000F000F000E4
:1052A400F000F000F000F000F000F000F000F0007A
:1052B400F000F000F000F000F000F000F000F0006A
:1052C400F000F07FF07F0000C000C001C001E003E7
:1052D400E003F007F0077807780F380F3C1E3C1EF8
:1052E4001E3C1E3C0F380F780778000000000000B9
:1052F40000000000000000000000000000000000AA
:105304000000000000000000000000000000000099
:105314000000000000000000000000000000000089
:10532400000000000000FFFFFFFF0000000000007D
:10533400F000000000000000000000000000000079
:105344000000000000000000000000000000000059
:105354000000000000000000000000000000000049
:105364000000000000000000000000000000000039
:10537400F80FFC3F7C3C3E003E003E00FE07FE1F53
:105384003E3E3E7C3E783E7C7E7CFF3FCF1F00004D
:105394000000000000000000003C003C003C003C19
:1053A400003C003CF83DFE3F3E3F1F3E0F3C0F3C9F
:1053B4000F3C0F3C0F3C0F3C1F3C1E3C3E3FFC3F50
:1053C400F03B0000000000000000000000000000AE
:1053D4000000000000000000FE03FF0F871F003ED6
:1053E400003E003C007C007C007C003C003E003E13
:1053F400871FFF0FFE0300000000000000000000F4
:105404001F001F001F001F001F001F00FF07FF1FBA
:105414003F3E1F3C1F7C1F7C1F7C1F781F781F7C16
:105424001F7C3F3C7F3EFF1FDF0F00000000000099
:105434000000000000000000000000000000000068
:10544400F803FC0F3E1F1E3E1F3C1F7CFF7FFF7FA7
:10545400007C007C003C003E071FFF0FFE030000A1
:105464000000000000000000FF01E103C003C007CA
:10547400C007C007FF7FFF7FC007C007C007C00782
:10548400C007C007C007C007C007C007C007C007E0
:10549400C007000000000000000000000000000041
:1054A4000000000000000000EF07FF1F7F3E1F3CCC
:1054B4001F7C1F7C1F781F781F781F7C1F7C3F3C3C
:1054C4007F3EFF1FDF0F1E001E001E007C38F83FCA
:1054D400003C003C003C003C003C003CFC3DFE3FEA
:1054E4009E3F1F3F1F3E1F3C1F3C1F3C1F3C1F3C59
:1054F4001F3C1F3C1F3C1F3C1F3C000000000000E1
:1055040000000000F001F0010000000000000000B5
:10551400E07FE07FE001E001E001E001E001E00183
:10552400E001E001E001E001E001E001E001000050
:105534000000000000000000F800F8000000000077
:1055440000000000F83FF83FF800F800F800F80009
:10555400F800F800F800F800F800F800F800F80087
:10556400F800F800F800F000F071E07F003C003C27
:10557400003C003C003C003C1F3C3E3C7C3CF83C76
:10558400F03DE03DC03FC03FE03FF03DF83C7C3C97
:105594003E3C1F3C1F3C00000000000000000000D7
:1055A400F07FF001F001F001F001F001F001F001F1
:1055B400F001F001F001F001F001F001F001F0015F
:1055C400F001F001F001F001F00100000000000022
:1055D40000000000000000000000000000000000C7
:1055E4009EF7FFFFFFFFFFFFE7FBE7F9C7F1C7F1F6
:1055F400C7F1C7F1C7F1C7F1C7F1C7F1C7F100009F
:105604000000000000000000000000000000000096
:1056140000000000FC3DFE3F9E3F1F3F1F3E1F3C1D
:105624001F3C1F3C1F3C1F3C1F3C1F3C1F3C1F3C9E
:105634001F3C00000000000000000000000000000B
:105644000000000000000000F007FC1F3E3E1F3C6D
:105654001F7C0F780F780F780F780F781F7C1F3C12
:105664003E3EFC1FF00700000000000000000000A8
:10567400000000000000000000000000F83DFE3FB4
:105684003E3F1F3E0F3C0F3C0F3C0F3C0F3C0F3C7A
:105694001F3C1E3E3E3FFC3FF83F003C003C003CAC
:1056A400003C003C0000000000000000000000007E
:1056B400EE07FE1F7E3E1E3C1E7C1E781E781E7862
:1056C4001E781E781E7C3E7C7E3EFE1FDE0F1E0072
:1056D4001E001E001E001E0000000000000000004E
:1056E400000000007F1FFF1FE71FC71F871F001F49
:1056F400001F001F001F001F001F001F001F001FAE
:10570400001F000000000000000000000000000076
:105714000000000000000000FC07FE1F0E1E003EFB
:10572400003E003FE01FFC07FE003E001E001E007E
:105734003E3CFC3FF01F00000000000000000000A1
:10574400000000000000800780078007FF7FFF7FC4
:10575400800780078007800780078007800780070D
:1057640080078007C007FF03FF010000000000005E
:105774000000000000000000000000000000000025
:105784001E3C1E3C1E3C1E3C1E3C1E3C1E3C1E3C45
:105794001E3C1E3C3E3C7E3CFE3EFE1FDE0F0000D7
:1057A40000000000000000000000000000000000F5
:1057B4000000000007F00F780F781E3C1E3C1E3ED0
:1057C4003C1E3C1E780F780FF00FF007F007E00343
:1057D400E0030000000000000000000000000000E2
:1057E400000000000000000003F0E3F1E3F3E7F33E
:1057F400F7F3F7F3F77F777F7F7F7F7F7F7F3E3EEF
:105804003E3E3E3E3E3E0000000000000000000020
:105814000000000000000000000000000F7C1E3E9D
:105824003C3E3C1FF80FF007F007E003F007F807D1
:10583400F80F7C1E3E3E1F3C1F7800000000000055
:105844000000000000000000000000000000000054
:1058540007F80F780F7C1E3C1E3C3C1E3C1E3C1F70
:10586400780FF80FF007F007E003E003C003C0036C
:10587400C0038007800F007F0000000000000000CC
:1058840000000000FF3FFF3F1F003E007C00F800C7
:10589400F001E003C007800F001F001E003CFF7FE3
:1058A400FF7F00000000000000000000FE01E00394
:1058B400C003C003C003C003E001E001E001C00174
:1058C400C003803F803FC003C001E001E001E0016C
:1058D400C003C003C003C003E003FE017E00000058
:1058E400C001C001C001C001C001C001C001C001AC
:1058F400C001C001C001C001C001C001C001C0019C
:10590400C001C001C001C001C001C001C001C0018B
:10591400C0010000C03FE003E001E001E001E0015C
:10592400C001C003C003C001E001FE00FE00E001AD
:10593400C001C003C003C001E001E001E001E001D7
:10594400E003C03F003F0000000000000000000032
:105954000000000000000000000000000000073FFD
:10596400C77FE773FFF17EF0000000000000000035
:105974000000000000000000000000000000000023
:105984000000000000000000000000000000000013
:105994000000000000000000000000000000000003
:1059A4000000000C000C000C000C000C000C000C9F
:1059B400000C000C000C000C0000000C000C00009B
:1059C400000000000000001B001B001B001B001B4C
:1059D40000000000000000000000000000000000C3
:1059E40000000000000000000000801980198019E8
:1059F4008019C07FC07F80190033C07FC07F00330F
:105A04000033003300330000000000000000001EDB
:105A1400003F807580650074003C001E000780050F
:105A2400806580658075003F001E0004000400004E
:105A34000000007000D840D8C0D880D90073000698
:105A4400000C801BC036C066C046C0068003000040
:105A5400000000000000001E003F0033003300334C
:105A6400001E000CC03CC066806380618063C03E41
:105A7400801C0000000000000000000C000C000C62
:105A8400000C000C000000000000000000000000FA
:105A94000000000000000000000000008000000181
:105AA4000003000600060004000C000C000C000CAF
:105AB400000C000C00040006000600030001800036
:105AC400002000100018000C000C00040006000662
:105AD40000060006000600060004000C000C001876
